{
  "contractName": "SimpleToken",
  "abi": [
    {
      "inputs": [],
      "stateMutability": "nonpayable",
      "type": "constructor"
    },
    {
      "inputs": [
        {
          "internalType": "address",
          "name": "",
          "type": "address"
        }
      ],
      "name": "balances",
      "outputs": [
        {
          "internalType": "uint256",
          "name": "",
          "type": "uint256"
        }
      ],
      "stateMutability": "view",
      "type": "function",
      "constant": true
    },
    {
      "inputs": [],
      "name": "name",
      "outputs": [
        {
          "internalType": "string",
          "name": "",
          "type": "string"
        }
      ],
      "stateMutability": "view",
      "type": "function",
      "constant": true
    },
    {
      "inputs": [],
      "name": "symbol",
      "outputs": [
        {
          "internalType": "string",
          "name": "",
          "type": "string"
        }
      ],
      "stateMutability": "view",
      "type": "function",
      "constant": true
    },
    {
      "inputs": [],
      "name": "totalSupply",
      "outputs": [
        {
          "internalType": "uint256",
          "name": "",
          "type": "uint256"
        }
      ],
      "stateMutability": "view",
      "type": "function",
      "constant": true
    },
    {
      "inputs": [
        {
          "internalType": "address",
          "name": "recipient",
          "type": "address"
        },
        {
          "internalType": "uint256",
          "name": "amount",
          "type": "uint256"
        }
      ],
      "name": "transfer",
      "outputs": [],
      "stateMutability": "payable",
      "type": "function",
      "payable": true
    },
    {
      "inputs": [
        {
          "internalType": "address",
          "name": "account",
          "type": "address"
        }
      ],
      "name": "balanceOf",
      "outputs": [
        {
          "internalType": "uint256",
          "name": "",
          "type": "uint256"
        }
      ],
      "stateMutability": "view",
      "type": "function",
      "constant": true
    }
  ],
  "bytecode": "0x6080604052620f424060005534801561001757600080fd5b50600054600160003373ffffffffffffffffffffffffffffffffffffffff1673ffffffffffffffffffffffffffffffffffffffff168152602001908152602001600020819055506106978061006d6000396000f3fe6080604052600436106100555760003560e01c806306fdde031461005a57806318160ddd1461008557806327e235e3146100b057806370a08231146100ed57806395d89b411461012a578063a9059cbb14610155575b600080fd5b34801561006657600080fd5b5061006f610171565b60405161007c919061040c565b60405180910390f35b34801561009157600080fd5b5061009a6101aa565b6040516100a79190610447565b60405180910390f35b3480156100bc57600080fd5b506100d760048036038101906100d291906104c5565b6101b0565b6040516100e49190610447565b60405180910390f35b3480156100f957600080fd5b50610114600480360381019061010f91906104c5565b6101c8565b6040516101219190610447565b60405180910390f35b34801561013657600080fd5b5061013f610211565b60405161014c919061040c565b60405180910390f35b61016f600480360381019061016a919061051e565b61024a565b005b6040518060400160405280600c81526020017f53696d706c6520546f6b656e000000000000000000000000000000000000000081525081565b60005481565b60016020528060005260406000206000915090505481565b6000600160008373ffffffffffffffffffffffffffffffffffffffff1673ffffffffffffffffffffffffffffffffffffffff168152602001908152602001600020549050919050565b6040518060400160405280600281526020017f535400000000000000000000000000000000000000000000000000000000000081525081565b80600160003373ffffffffffffffffffffffffffffffffffffffff1673ffffffffffffffffffffffffffffffffffffffff1681526020019081526020016000205410156102cc576040517f08c379a00000000000000000000000000000000000000000000000000000000081526004016102c3906105aa565b60405180910390fd5b80600160003373ffffffffffffffffffffffffffffffffffffffff1673ffffffffffffffffffffffffffffffffffffffff168152602001908152602001600020600082825461031b91906105f9565b9250508190555080600160008473ffffffffffffffffffffffffffffffffffffffff1673ffffffffffffffffffffffffffffffffffffffff1681526020019081526020016000206000828254610371919061062d565b925050819055505050565b600081519050919050565b600082825260208201905092915050565b60005b838110156103b657808201518184015260208101905061039b565b60008484015250505050565b6000601f19601f8301169050919050565b60006103de8261037c565b6103e88185610387565b93506103f8818560208601610398565b610401816103c2565b840191505092915050565b6000602082019050818103600083015261042681846103d3565b905092915050565b6000819050919050565b6104418161042e565b82525050565b600060208201905061045c6000830184610438565b92915050565b600080fd5b600073ffffffffffffffffffffffffffffffffffffffff82169050919050565b600061049282610467565b9050919050565b6104a281610487565b81146104ad57600080fd5b50565b6000813590506104bf81610499565b92915050565b6000602082840312156104db576104da610462565b5b60006104e9848285016104b0565b91505092915050565b6104fb8161042e565b811461050657600080fd5b50565b600081359050610518816104f2565b92915050565b6000806040838503121561053557610534610462565b5b6000610543858286016104b0565b925050602061055485828601610509565b9150509250929050565b7f496e73756666696369656e742062616c616e6365000000000000000000000000600082015250565b6000610594601483610387565b915061059f8261055e565b602082019050919050565b600060208201905081810360008301526105c381610587565b9050919050565b7f4e487b7100000000000000000000000000000000000000000000000000000000600052601160045260246000fd5b60006106048261042e565b915061060f8361042e565b9250828203905081811115610627576106266105ca565b5b92915050565b60006106388261042e565b91506106438361042e565b925082820190508082111561065b5761065a6105ca565b5b9291505056fea26469706673582212209fbc14e19664012ec038cc5b54514f3f6e40adbbb0bc89ba208dc17008d3db0264736f6c63430008110033",
  "immutableReferences": {},
  "source": "// SPDX-License-Identifier: GPL-3.0\r\npragma solidity ^0.8.0;\r\n\r\ncontract SimpleToken {\r\n    string public constant name = \"Simple Token\";\r\n    string public constant symbol = \"ST\";\r\n    uint256 public totalSupply = 1000000;\r\n\r\n    mapping (address => uint256) public balances;\r\n\r\n    constructor(){\r\n        balances[msg.sender] = totalSupply;\r\n    }\r\n\r\n    function transfer(address recipient, uint256 amount) public payable {\r\n        require(balances[msg.sender] >= amount, \"Insufficient balance\");\r\n        balances[msg.sender] -= amount;\r\n        balances[recipient] += amount;\r\n    }\r\n\r\n    function balanceOf(address account) public view returns (uint256) {\r\n        return balances[account];\r\n    }\r\n}",
  "sourcePath": "C:\\Users\\TG68\\OneDrive\\Desktop\\Practise\\SimpleToken\\contracts\\SimpleToken.sol",
  "compiler": {
    "name": "solc",
    "version": "0.8.17+commit.8df45f5f.Emscripten.clang"
  },
  "schemaVersion": "3.4.11",
  "updatedAt": "2023-02-02T15:11:11.388Z",
  "networkType": "ethereum",
  "devdoc": {
    "kind": "dev",
    "methods": {},
    "version": 1
  },
  "userdoc": {
    "kind": "user",
    "methods": {},
    "version": 1
  }
}